:100000000C9434000C9451000C9451000C94F500A5
:100010000C9451000C9445010C9451000C94510027
:100020000C9451000C9451000C9451000C9451000C
:100030000C9451000C9451000C9451000C945100FC
:100040000C9451000C9451000C94FC010C94510040
:100050000C9451000C9471000C9451000C945100BC
:100060000C9451000C94510011241FBECFEFD8E026
:10007000DEBFCDBF14E0A0E0B1E0EEE8F9E002C0E1
:1000800005900D92A039B107D9F724E0A0E9B4E0BA
:1000900001C01D92AF39B207E1F70E94AB010C9489
:1000A000C5040C940000ECE7F0E0108280818064CD
:1000B000808380818F778083808180628083EAE77C
:1000C000F0E01082808180688083808188608083F6
:1000D000808187608083EEE7F0E080818F6080839D
:1000E00008951F920F920FB60F9211242F933F93F2
:1000F0004F935F936F937F938F939F93AF93BF9330
:10010000EF93FF93EAE7F0E0808180618083809144
:100110000001813009F043C08091970481110FC024
:1001200081E080939704ECE7F0E08081807F80831A
:100130008091790062E090E00E94330430C0813009
:1001400081F482E080939704ECE7F0E08081807F87
:10015000816080838091790061E090E00E943304A7
:100160001EC0813071F483E080939704ECE7F0E0E7
:100170008081807F82608083809179008093B40049
:100180000EC0833061F410929704ECE7F0E08081B8
:10019000807F83608083809179008093B300EAE759
:1001A000F0E0808180648083FF91EF91BF91AF91F7
:1001B0009F918F917F916F915F914F913F912F917F
:1001C0000F900FBE0F901F901895E8E6F0E0808129
:1001D00085608083EBE6F0E0808181618083EDE6DD
:1001E000F0E080818068808308951F920F920FB69F
:1001F0000F9211248F9380910001813081F418991E
:1002000007C08BB184618BB981E08093960407C0ED
:10021000189B05C08BB18B7E8BB9109296048F9181
:100220000F900FBE0F901F9018958AB18E7F8AB9DC
:100230008AB182608AB9E0ECF0E01082808182604D
:100240008083E1ECF0E01082808188698083E2ECB9
:10025000F0E010828081866080838FEC90E0909344
:10026000C5008093C4000895AC0120E007C09091C0
:10027000C00095FFFCCF3093C6002F5FFA01E20F5C
:10028000F11D30813111F3CF08951F920F920FB6F7
:100290000F9211242F933F934F935F936F937F930C
:1002A0008F939F93AF93BF93EF93FF938091000140
:1002B000813061F54F992DC080910101813041F469
:1002C00082E08093010182E091E00E94340121C02C
:1002D000823041F483E08093010189E191E00E9442
:1002E000340117C0833041F484E08093010180E33E
:1002F00091E00E9434010DC0843059F481E0809374
:10030000010187E491E00E94340103C081E0809301
:100310000101FF91EF91BF91AF919F918F917F91DB
:100320006F915F914F913F912F910F900FBE0F9062
:100330001F9018958EE591E00E9434018FE791E0BF
:100340000E94340181E991E00E94340183EA91E046
:100350000E9434010895F89485B1816185B984B112
:100360008E7E84B984B1866084B917B88BB18068F9
:100370008BB98AB18F778AB98AB184678AB90E94AA
:1003800053000E94E5000E94150168E070E082E0E1
:100390000E94EB0360E081E00E94CA0360E082E01B
:1003A0000E94CA038FE39CE90E94220460E074E08B
:1003B00080E00E94620460E074E080E00E948404B7
:1003C000789485EB91E00E9434010E949A01EAE75B
:1003D000F0E08081806480838BB180628BB98BB1C7
:1003E0008F7B8BB9FFCF80919A048093C60081ECFC
:1003F00091E00E94340108951F920F920FB60F9260
:1004000011240F931F932F933F934F935F936F93F9
:100410007F938F939F93AF93BF93EF93FF93CF936C
:10042000DF931F92CDB7DEB78091C60080939A0408
:100430008091C00085FFFCCF80919A048983CE0112
:1004400001960E949F048C019091900491110DC11E
:1004500090919504911163C08130A1F48BB18062B9
:100460008BB98BB18F7B8BB981E0809300011092A7
:1004700095040E94F30186ED91E00E9434010E94F0
:100480009A0172C18230A1F48BB180648BB98BB1B7
:100490008F7D8BB982E080930001109295040E94B9
:1004A000F30183EE91E00E9434010E949A015CC145
:1004B000833061F58BB180668BB983E08093000156
:1004C00081E0809395040E94F30185EF91E00E9402
:1004D000340182E092E00E9434018FE292E00E94B7
:1004E000340187E492E00E9434018FE592E00E949B
:1004F00034018AE792E00E94340189E992E00E9487
:1005000034018EEA92E00E9434012EC110929504CB
:1005100084EC92E00E9434010E949A0125C10E945D
:10052000F301112703301105B9F13CF40130110535
:1005300079F002301105F1F08FC00530110509F492
:100540005FC00CF443C00630110509F46FC084C0CD
:100550008BB180628BB98BB18F7B8BB981E080933B
:100560000001109295048BED92E00E9434010E94EC
:100570009A01FAC08BB180648BB98BB18F7D8BB936
:1005800082E0809300011092950485EF92E00E9432
:1005900034010E949A01E8C081E080939004809326
:1005A000920480E193E00E94340188E293E00E948B
:1005B000340187E493E00E94340186E593E00E94D1
:1005C000340184E693E00E943401CEC081E0809340
:1005D00090048093920480E193E00E94340188E2C9
:1005E00093E00E94340187E493E00E94340186E5A1
:1005F00093E00E94340184E693E00E943401B4C089
:1006000081E0809390048093910480E793E00E94BE
:1006100034018AE893E00E94340187EA93E00E9463
:10062000340184EB93E00E9434019EC081E080930A
:1006300090048093910480EC93E00E94340184ED57
:1006400093E00E94340187EA93E00E94340184EB36
:1006500093E00E94340188C0109290041092950497
:1006600080EF93E00E9434017FC0109290041092BA
:1006700095040E94F301809194048130C1F410929A
:100680009404C80199278130910519F0029731F03F
:100690000AC085E094E00E94340109C082E194E040
:1006A0000E94340104C080E294E00E9434018091F1
:1006B00093048130C1F410929304C80199278130CA
:1006C000910519F0029731F00AC085E094E00E948C
:1006D000340109C082E194E00E94340104C080E248
:1006E00094E00E943401809192048130F9F41092D8
:1006F0009204C80199278230910551F08330910509
:1007000061F0019779F482E394E00E9434010EC015
:100710008EE394E00E94340109C089E494E00E94D1
:10072000340104C081E594E00E9434018091910479
:100730008130C1F41092910411270130110521F08C
:100740000230110531F00AC085E694E00E943401C0
:1007500009C08FE694E00E94340104C088E794E069
:100760000E9434010E949A010F90DF91CF91FF9176
:10077000EF91BF91AF919F918F917F916F915F9119
:100780004F913F912F911F910F910F900FBE0F909E
:100790001F901895813019F0823079F008956130FA
:1007A00031F4E0E8F0E08081806C80830895E0E837
:1007B000F0E08081806880830895613031F4E0E862
:1007C000F0E08081806380830895E0E8F0E080813C
:1007D00080628083089510928000109281006830BA
:1007E000710521F06115744039F00BC0E1E8F0E0CB
:1007F00090819260908305C0E1E8F0E0908195607F
:100800009083813019F0823061F00895E0E8F0E0E3
:10081000808183608083E1E8F0E08081886080836C
:100820000895E0E8F0E0808182608083E1E8F0E014
:1008300080818861808381E090E090939904809327
:10084000980408952091980430919904213031053D
:1008500029F490938700809386000895109299045C
:10086000109298040895613019F06230B1F0089543
:1008700090939E0480939D0482959295907F9827F3
:10088000807F982788519C4F90939C0480939B0471
:100890009093890080938800089590939E0480939C
:1008A0009D0482959295907F9827807F9827885104
:1008B0009C4F90939C0480939B0490938B00809317
:1008C0008A00089594B1986094B9E0EBF0E09081CB
:1008D00093609083882321F08081806C808305C0A1
:1008E000E0EBF0E08081806880836115744031F432
:1008F000E1EBF0E08081876080830895E1EBF0E038
:1009000080818160808308959AB198609AB9882324
:1009100021F084E28093B00005C0E0EBF0E080813C
:10092000806280836115744021F487E08093B10078
:100930000895E1EBF0E08081816080830895FC01FF
:1009400088279927E89421912032E9F3293010F083
:100950002E30C8F32B3241F02D3239F4689404C0A4
:100960000E94BD04820F911D219120532A30C0F3B3
:100970001EF4909581959F4F08957AE0979F902D52
:0E098000879F802D910D11240895F894FFCFCC
:10098E0001010A477561726461646120706F736959
:10099E006369F36E20310A0A000A47756172646159
:1009AE00646120706F73696369F36E20320A0A0006
:1009BE000A477561726461646120706F736963695F
:1009CE00F36E20330A0A000A47756172646164612E
:1009DE0020706F73696369F36E20340A0A000A0A85
:1009EE002A2073656C656363696F6E6172206D6F2B
:1009FE00646F206F706572616E646F202A0A000941
:100A0E0020312E206D6F64204D616E75616C200A51
:100A1E00000920322E206D6F6420454550524F4DF7
:100A2E00200A000920332E206D6F64205553415249
:100A3E0054200A0A0048656C6C6F20776F6C7264E4
:100A4E0000202D3E20656E697669617220636172A9
:100A5E006163746572000A4D4F444F204D415541FC
:100A6E004C0A000A4D4F444F204D454D20454550F0
:100A7E00524F4D0A000A4D4F444F20555341525488
:100A8E000A000A0A2A2A2A2A2A2A2A2A20454C49F0
:100A9E004741204C4120414343494F4E204445534A
:100AAE0045414441202A2A2A2A2A2A2A2A0A0009AA
:100ABE0020312E20497220616C206D6F646F206D85
:100ACE00616E75616C0A000920322E204972206118
:100ADE006C206D6F646F20454550524F4D0A0009D2
:100AEE0020332E20436F6E74726F6C207365727696
:100AFE006F31206C756365730A000920342E204314
:100B0E006F6E74726F6C20736572766F32206469CB
:100B1E0072656363696F6E0A000920352E20566573
:100B2E006C6F636964616420444320310A000920BC
:100B3E00362E2056656C6F636964616420444320D1
:100B4E00320A0A000A0A6F7063696F6E2064657359
:100B5E00636F6E6F636964610A0A000A4D4F444FFA
:100B6E00204D4155414C2053454C454343494F4E32
:100B7E0041444F0A000A4D4F444F20454550524FB5
:100B8E004D2053454C454343494F4E41444F0A0077
:100B9E000A446972726563696F6E2073656C656372
:100BAE00696F6E61646F0A000A0A2A2073656C63AE
:100BBE0063696F6E6520756E61206469726563632B
:100BCE00696F6E202A0A000920312E20697A71750C
:100BDE00696572610A000920322E206465726563B0
:100BEE0068610A000920332E20726563746F0A0053
:100BFE000A56656C6F63696461642073656C656326
:100C0E0063696F6E616461200A000A0A2A207365A7
:100C1E006C656363696F6E6520756E6120616363D9
:100C2E00696F6E202A0A000920312E2072617069C8
:100C3E00646F0A000920322E206C656E746F0A00F4
:100C4E000A56656C6F636974792073656C6563749D
:100C5E0065640A000A0A2A2073656C656363696F0E
:100C6E006E6520756E6120616363696F6E2A0A007E
:100C7E000A0A09206F7063696F6E20696E76616C67
:100C8E006964610A000A204F70656E20646F6F728E
:100C9E000A000A20436C6F736520646F6F720A003E
:100CAE000A20496E76616C6964206F7074696F6E8C
:100CBE000A000A20697A7175696572610A000A2054
:100CCE00646572656368610A000A20726563746FF9
:100CDE00000A204F7063696F6E20696E76616C69D1
:100CEE006461200A000A2072617069646F0A000A4A
:100CFE00206C656E746F0A000A206F7063696F6EE8
:100D0E0020646573636F6E6F636964616E0A0000C1
:00000001FF
